{
  "contractName": "Trading",
  "abi": [
    {
      "inputs": [],
      "stateMutability": "nonpayable",
      "type": "constructor"
    },
    {
      "anonymous": false,
      "inputs": [
        {
          "indexed": true,
          "internalType": "address",
          "name": "owner",
          "type": "address"
        },
        {
          "indexed": true,
          "internalType": "address",
          "name": "approved",
          "type": "address"
        },
        {
          "indexed": true,
          "internalType": "uint256",
          "name": "tokenId",
          "type": "uint256"
        }
      ],
      "name": "Approval",
      "type": "event"
    },
    {
      "anonymous": false,
      "inputs": [
        {
          "indexed": true,
          "internalType": "address",
          "name": "owner",
          "type": "address"
        },
        {
          "indexed": true,
          "internalType": "address",
          "name": "operator",
          "type": "address"
        },
        {
          "indexed": false,
          "internalType": "bool",
          "name": "approved",
          "type": "bool"
        }
      ],
      "name": "ApprovalForAll",
      "type": "event"
    },
    {
      "anonymous": false,
      "inputs": [
        {
          "indexed": true,
          "internalType": "address",
          "name": "previousOwner",
          "type": "address"
        },
        {
          "indexed": true,
          "internalType": "address",
          "name": "newOwner",
          "type": "address"
        }
      ],
      "name": "OwnershipTransferred",
      "type": "event"
    },
    {
      "anonymous": false,
      "inputs": [
        {
          "indexed": true,
          "internalType": "address",
          "name": "from",
          "type": "address"
        },
        {
          "indexed": true,
          "internalType": "address",
          "name": "to",
          "type": "address"
        },
        {
          "indexed": true,
          "internalType": "uint256",
          "name": "tokenId",
          "type": "uint256"
        }
      ],
      "name": "Transfer",
      "type": "event"
    },
    {
      "inputs": [
        {
          "internalType": "address",
          "name": "to",
          "type": "address"
        },
        {
          "internalType": "uint256",
          "name": "tokenId",
          "type": "uint256"
        }
      ],
      "name": "approve",
      "outputs": [],
      "stateMutability": "nonpayable",
      "type": "function"
    },
    {
      "inputs": [
        {
          "internalType": "address",
          "name": "owner",
          "type": "address"
        }
      ],
      "name": "balanceOf",
      "outputs": [
        {
          "internalType": "uint256",
          "name": "",
          "type": "uint256"
        }
      ],
      "stateMutability": "view",
      "type": "function",
      "constant": true
    },
    {
      "inputs": [
        {
          "internalType": "uint256",
          "name": "tokenId",
          "type": "uint256"
        }
      ],
      "name": "burn",
      "outputs": [],
      "stateMutability": "nonpayable",
      "type": "function"
    },
    {
      "inputs": [
        {
          "internalType": "uint256",
          "name": "tokenId",
          "type": "uint256"
        }
      ],
      "name": "getApproved",
      "outputs": [
        {
          "internalType": "address",
          "name": "",
          "type": "address"
        }
      ],
      "stateMutability": "view",
      "type": "function",
      "constant": true
    },
    {
      "inputs": [
        {
          "internalType": "address",
          "name": "owner",
          "type": "address"
        },
        {
          "internalType": "address",
          "name": "operator",
          "type": "address"
        }
      ],
      "name": "isApprovedForAll",
      "outputs": [
        {
          "internalType": "bool",
          "name": "",
          "type": "bool"
        }
      ],
      "stateMutability": "view",
      "type": "function",
      "constant": true
    },
    {
      "inputs": [],
      "name": "name",
      "outputs": [
        {
          "internalType": "string",
          "name": "",
          "type": "string"
        }
      ],
      "stateMutability": "view",
      "type": "function",
      "constant": true
    },
    {
      "inputs": [],
      "name": "owner",
      "outputs": [
        {
          "internalType": "address",
          "name": "",
          "type": "address"
        }
      ],
      "stateMutability": "view",
      "type": "function",
      "constant": true
    },
    {
      "inputs": [
        {
          "internalType": "uint256",
          "name": "tokenId",
          "type": "uint256"
        }
      ],
      "name": "ownerOf",
      "outputs": [
        {
          "internalType": "address",
          "name": "",
          "type": "address"
        }
      ],
      "stateMutability": "view",
      "type": "function",
      "constant": true
    },
    {
      "inputs": [],
      "name": "renounceOwnership",
      "outputs": [],
      "stateMutability": "nonpayable",
      "type": "function"
    },
    {
      "inputs": [
        {
          "internalType": "address",
          "name": "from",
          "type": "address"
        },
        {
          "internalType": "address",
          "name": "to",
          "type": "address"
        },
        {
          "internalType": "uint256",
          "name": "tokenId",
          "type": "uint256"
        }
      ],
      "name": "safeTransferFrom",
      "outputs": [],
      "stateMutability": "nonpayable",
      "type": "function"
    },
    {
      "inputs": [
        {
          "internalType": "address",
          "name": "from",
          "type": "address"
        },
        {
          "internalType": "address",
          "name": "to",
          "type": "address"
        },
        {
          "internalType": "uint256",
          "name": "tokenId",
          "type": "uint256"
        },
        {
          "internalType": "bytes",
          "name": "data",
          "type": "bytes"
        }
      ],
      "name": "safeTransferFrom",
      "outputs": [],
      "stateMutability": "nonpayable",
      "type": "function"
    },
    {
      "inputs": [
        {
          "internalType": "address",
          "name": "operator",
          "type": "address"
        },
        {
          "internalType": "bool",
          "name": "approved",
          "type": "bool"
        }
      ],
      "name": "setApprovalForAll",
      "outputs": [],
      "stateMutability": "nonpayable",
      "type": "function"
    },
    {
      "inputs": [],
      "name": "symbol",
      "outputs": [
        {
          "internalType": "string",
          "name": "",
          "type": "string"
        }
      ],
      "stateMutability": "view",
      "type": "function",
      "constant": true
    },
    {
      "inputs": [
        {
          "internalType": "uint256",
          "name": "index",
          "type": "uint256"
        }
      ],
      "name": "tokenByIndex",
      "outputs": [
        {
          "internalType": "uint256",
          "name": "",
          "type": "uint256"
        }
      ],
      "stateMutability": "view",
      "type": "function",
      "constant": true
    },
    {
      "inputs": [
        {
          "internalType": "address",
          "name": "owner",
          "type": "address"
        },
        {
          "internalType": "uint256",
          "name": "index",
          "type": "uint256"
        }
      ],
      "name": "tokenOfOwnerByIndex",
      "outputs": [
        {
          "internalType": "uint256",
          "name": "",
          "type": "uint256"
        }
      ],
      "stateMutability": "view",
      "type": "function",
      "constant": true
    },
    {
      "inputs": [
        {
          "internalType": "uint256",
          "name": "",
          "type": "uint256"
        }
      ],
      "name": "tokensList",
      "outputs": [
        {
          "internalType": "uint256",
          "name": "",
          "type": "uint256"
        }
      ],
      "stateMutability": "view",
      "type": "function",
      "constant": true
    },
    {
      "inputs": [],
      "name": "totalSupply",
      "outputs": [
        {
          "internalType": "uint256",
          "name": "",
          "type": "uint256"
        }
      ],
      "stateMutability": "view",
      "type": "function",
      "constant": true
    },
    {
      "inputs": [
        {
          "internalType": "address",
          "name": "from",
          "type": "address"
        },
        {
          "internalType": "address",
          "name": "to",
          "type": "address"
        },
        {
          "internalType": "uint256",
          "name": "tokenId",
          "type": "uint256"
        }
      ],
      "name": "transferFrom",
      "outputs": [],
      "stateMutability": "nonpayable",
      "type": "function"
    },
    {
      "inputs": [
        {
          "internalType": "address",
          "name": "newOwner",
          "type": "address"
        }
      ],
      "name": "transferOwnership",
      "outputs": [],
      "stateMutability": "nonpayable",
      "type": "function"
    },
    {
      "inputs": [
        {
          "internalType": "address",
          "name": "to",
          "type": "address"
        },
        {
          "internalType": "string",
          "name": "uri",
          "type": "string"
        }
      ],
      "name": "safeMint",
      "outputs": [],
      "stateMutability": "nonpayable",
      "type": "function"
    },
    {
      "inputs": [],
      "name": "getTokensListCustom",
      "outputs": [
        {
          "internalType": "uint256[]",
          "name": "",
          "type": "uint256[]"
        }
      ],
      "stateMutability": "view",
      "type": "function",
      "constant": true
    },
    {
      "inputs": [
        {
          "internalType": "uint256",
          "name": "tokenId",
          "type": "uint256"
        }
      ],
      "name": "tokenURI",
      "outputs": [
        {
          "internalType": "string",
          "name": "",
          "type": "string"
        }
      ],
      "stateMutability": "view",
      "type": "function",
      "constant": true
    },
    {
      "inputs": [
        {
          "internalType": "bytes4",
          "name": "interfaceId",
          "type": "bytes4"
        }
      ],
      "name": "supportsInterface",
      "outputs": [
        {
          "internalType": "bool",
          "name": "",
          "type": "bool"
        }
      ],
      "stateMutability": "view",
      "type": "function",
      "constant": true
    }
  ],
  "bytecode": "0x60806040523480156200001157600080fd5b506040518060400160405280600781526020017f54726164696e67000000000000000000000000000000000000000000000000008152506040518060400160405280600781526020017f54726164696e670000000000000000000000000000000000000000000000000081525081600090816200008f919062000412565b508060019081620000a1919062000412565b505050620000c4620000b8620000ca60201b60201c565b620000d260201b60201c565b620004f9565b600033905090565b6000600b60009054906101000a900473ffffffffffffffffffffffffffffffffffffffff16905081600b60006101000a81548173ffffffffffffffffffffffffffffffffffffffff021916908373ffffffffffffffffffffffffffffffffffffffff1602179055508173ffffffffffffffffffffffffffffffffffffffff168173ffffffffffffffffffffffffffffffffffffffff167f8be0079c531659141344cd1fd0a4f28419497f9722a3daafe3b4186f6b6457e060405160405180910390a35050565b600081519050919050565b7f4e487b7100000000000000000000000000000000000000000000000000000000600052604160045260246000fd5b7f4e487b7100000000000000000000000000000000000000000000000000000000600052602260045260246000fd5b600060028204905060018216806200021a57607f821691505b60208210810362000230576200022f620001d2565b5b50919050565b60008190508160005260206000209050919050565b60006020601f8301049050919050565b600082821b905092915050565b6000600883026200029a7fffffffffffffffffffffffffffffffffffffffffffffffffffffffffffffffff826200025b565b620002a686836200025b565b95508019841693508086168417925050509392505050565b6000819050919050565b6000819050919050565b6000620002f3620002ed620002e784620002be565b620002c8565b620002be565b9050919050565b6000819050919050565b6200030f83620002d2565b620003276200031e82620002fa565b84845462000268565b825550505050565b600090565b6200033e6200032f565b6200034b81848462000304565b505050565b5b8181101562000373576200036760008262000334565b60018101905062000351565b5050565b601f821115620003c2576200038c8162000236565b62000397846200024b565b81016020851015620003a7578190505b620003bf620003b6856200024b565b83018262000350565b50505b505050565b600082821c905092915050565b6000620003e760001984600802620003c7565b1980831691505092915050565b6000620004028383620003d4565b9150826002028217905092915050565b6200041d8262000198565b67ffffffffffffffff811115620004395762000438620001a3565b5b62000445825462000201565b6200045282828562000377565b600060209050601f8311600181146200048a576000841562000475578287015190505b620004818582620003f4565b865550620004f1565b601f1984166200049a8662000236565b60005b82811015620004c4578489015182556001820191506020850194506020810190506200049d565b86831015620004e45784890151620004e0601f891682620003d4565b8355505b6001600288020188555050505b505050505050565b613b5780620005096000396000f3fe608060405234801561001057600080fd5b506004361061014d5760003560e01c80636352211e116100c3578063b88d4fde1161007c578063b88d4fde146103b0578063bd75a395146103cc578063c87b56dd146103ea578063d204c45e1461041a578063e985e9c514610436578063f2fde38b146104665761014d565b80636352211e146102ee57806370a082311461031e578063715018a61461034e5780638da5cb5b1461035857806395d89b4114610376578063a22cb465146103945761014d565b806323b872dd1161011557806323b872dd1461020a5780632f745c591461022657806342842e0e1461025657806342966c68146102725780634d12e34e1461028e5780634f6ccce7146102be5761014d565b806301ffc9a71461015257806306fdde0314610182578063081812fc146101a0578063095ea7b3146101d057806318160ddd146101ec575b600080fd5b61016c6004803603810190610167919061257a565b610482565b60405161017991906125c2565b60405180910390f35b61018a610494565b6040516101979190612676565b60405180910390f35b6101ba60048036038101906101b591906126ce565b610526565b6040516101c7919061273c565b60405180910390f35b6101ea60048036038101906101e59190612783565b61056c565b005b6101f4610683565b60405161020191906127d2565b60405180910390f35b610224600480360381019061021f91906127ed565b610690565b005b610240600480360381019061023b9190612783565b6106f0565b60405161024d91906127d2565b60405180910390f35b610270600480360381019061026b91906127ed565b610795565b005b61028c600480360381019061028791906126ce565b6107b5565b005b6102a860048036038101906102a391906126ce565b610811565b6040516102b591906127d2565b60405180910390f35b6102d860048036038101906102d391906126ce565b610835565b6040516102e591906127d2565b60405180910390f35b610308600480360381019061030391906126ce565b6108a6565b604051610315919061273c565b60405180910390f35b61033860048036038101906103339190612840565b610957565b60405161034591906127d2565b60405180910390f35b610356610a0e565b005b610360610a22565b60405161036d919061273c565b60405180910390f35b61037e610a4c565b60405161038b9190612676565b60405180910390f35b6103ae60048036038101906103a99190612899565b610ade565b005b6103ca60048036038101906103c59190612a0e565b610af4565b005b6103d4610b56565b6040516103e19190612b4f565b60405180910390f35b61040460048036038101906103ff91906126ce565b610bae565b6040516104119190612676565b60405180910390f35b610434600480360381019061042f9190612c12565b610bc0565b005b610450600480360381019061044b9190612c6e565b610c22565b60405161045d91906125c2565b60405180910390f35b610480600480360381019061047b9190612840565b610cb6565b005b600061048d82610d39565b9050919050565b6060600080546104a390612cdd565b80601f01602080910402602001604051908101604052809291908181526020018280546104cf90612cdd565b801561051c5780601f106104f15761010080835404028352916020019161051c565b820191906000526020600020905b8154815290600101906020018083116104ff57829003601f168201915b5050505050905090565b600061053182610db3565b6004600083815260200190815260200160002060009054906101000a900473ffffffffffffffffffffffffffffffffffffffff169050919050565b6000610577826108a6565b90508073ffffffffffffffffffffffffffffffffffffffff168373ffffffffffffffffffffffffffffffffffffffff16036105e7576040517f08c379a00000000000000000000000000000000000000000000000000000000081526004016105de90612d80565b60405180910390fd5b8073ffffffffffffffffffffffffffffffffffffffff16610606610dfe565b73ffffffffffffffffffffffffffffffffffffffff16148061063557506106348161062f610dfe565b610c22565b5b610674576040517f08c379a000000000000000000000000000000000000000000000000000000000815260040161066b90612e12565b60405180910390fd5b61067e8383610e06565b505050565b6000600880549050905090565b6106a161069b610dfe565b82610ebf565b6106e0576040517f08c379a00000000000000000000000000000000000000000000000000000000081526004016106d790612ea4565b60405180910390fd5b6106eb838383610f54565b505050565b60006106fb83610957565b821061073c576040517f08c379a000000000000000000000000000000000000000000000000000000000815260040161073390612f36565b60405180910390fd5b600660008473ffffffffffffffffffffffffffffffffffffffff1673ffffffffffffffffffffffffffffffffffffffff168152602001908152602001600020600083815260200190815260200160002054905092915050565b6107b083838360405180602001604052806000815250610af4565b505050565b6107c66107c0610dfe565b82610ebf565b610805576040517f08c379a00000000000000000000000000000000000000000000000000000000081526004016107fc90612ea4565b60405180910390fd5b61080e816111ba565b50565b600d818154811061082157600080fd5b906000526020600020016000915090505481565b600061083f610683565b8210610880576040517f08c379a000000000000000000000000000000000000000000000000000000000815260040161087790612fc8565b60405180910390fd5b6008828154811061089457610893612fe8565b5b90600052602060002001549050919050565b6000806002600084815260200190815260200160002060009054906101000a900473ffffffffffffffffffffffffffffffffffffffff169050600073ffffffffffffffffffffffffffffffffffffffff168173ffffffffffffffffffffffffffffffffffffffff160361094e576040517f08c379a000000000000000000000000000000000000000000000000000000000815260040161094590613063565b60405180910390fd5b80915050919050565b60008073ffffffffffffffffffffffffffffffffffffffff168273ffffffffffffffffffffffffffffffffffffffff16036109c7576040517f08c379a00000000000000000000000000000000000000000000000000000000081526004016109be906130f5565b60405180910390fd5b600360008373ffffffffffffffffffffffffffffffffffffffff1673ffffffffffffffffffffffffffffffffffffffff168152602001908152602001600020549050919050565b610a166111cf565b610a20600061124d565b565b6000600b60009054906101000a900473ffffffffffffffffffffffffffffffffffffffff16905090565b606060018054610a5b90612cdd565b80601f0160208091040260200160405190810160405280929190818152602001828054610a8790612cdd565b8015610ad45780601f10610aa957610100808354040283529160200191610ad4565b820191906000526020600020905b815481529060010190602001808311610ab757829003601f168201915b5050505050905090565b610af0610ae9610dfe565b8383611313565b5050565b610b05610aff610dfe565b83610ebf565b610b44576040517f08c379a0000000000000000000000000000000000000000000000000000000008152600401610b3b90612ea4565b60405180910390fd5b610b508484848461147f565b50505050565b6060600d805480602002602001604051908101604052809291908181526020018280548015610ba457602002820191906000526020600020905b815481526020019060010190808311610b90575b5050505050905090565b6060610bb9826114db565b9050919050565b610bc86111cf565b6000610bd4600c6115ed565b9050610be0600c6115fb565b600d819080600181540180825580915050600190039060005260206000200160009091909190915055610c138382611611565b610c1d818361162f565b505050565b6000600560008473ffffffffffffffffffffffffffffffffffffffff1673ffffffffffffffffffffffffffffffffffffffff16815260200190815260200160002060008373ffffffffffffffffffffffffffffffffffffffff1673ffffffffffffffffffffffffffffffffffffffff16815260200190815260200160002060009054906101000a900460ff16905092915050565b610cbe6111cf565b600073ffffffffffffffffffffffffffffffffffffffff168173ffffffffffffffffffffffffffffffffffffffff1603610d2d576040517f08c379a0000000000000000000000000000000000000000000000000000000008152600401610d2490613187565b60405180910390fd5b610d368161124d565b50565b60007f780e9d63000000000000000000000000000000000000000000000000000000007bffffffffffffffffffffffffffffffffffffffffffffffffffffffff1916827bffffffffffffffffffffffffffffffffffffffffffffffffffffffff19161480610dac5750610dab8261169c565b5b9050919050565b610dbc8161177e565b610dfb576040517f08c379a0000000000000000000000000000000000000000000000000000000008152600401610df290613063565b60405180910390fd5b50565b600033905090565b816004600083815260200190815260200160002060006101000a81548173ffffffffffffffffffffffffffffffffffffffff021916908373ffffffffffffffffffffffffffffffffffffffff160217905550808273ffffffffffffffffffffffffffffffffffffffff16610e79836108a6565b73ffffffffffffffffffffffffffffffffffffffff167f8c5be1e5ebec7d5bd14f71427d1e84f3dd0314c0f7b2291e5b200ac8c7c3b92560405160405180910390a45050565b600080610ecb836108a6565b90508073ffffffffffffffffffffffffffffffffffffffff168473ffffffffffffffffffffffffffffffffffffffff161480610f0d5750610f0c8185610c22565b5b80610f4b57508373ffffffffffffffffffffffffffffffffffffffff16610f3384610526565b73ffffffffffffffffffffffffffffffffffffffff16145b91505092915050565b8273ffffffffffffffffffffffffffffffffffffffff16610f74826108a6565b73ffffffffffffffffffffffffffffffffffffffff1614610fca576040517f08c379a0000000000000000000000000000000000000000000000000000000008152600401610fc190613219565b60405180910390fd5b600073ffffffffffffffffffffffffffffffffffffffff168273ffffffffffffffffffffffffffffffffffffffff1603611039576040517f08c379a0000000000000000000000000000000000000000000000000000000008152600401611030906132ab565b60405180910390fd5b6110448383836117ea565b61104f600082610e06565b6001600360008573ffffffffffffffffffffffffffffffffffffffff1673ffffffffffffffffffffffffffffffffffffffff168152602001908152602001600020600082825461109f91906132fa565b925050819055506001600360008473ffffffffffffffffffffffffffffffffffffffff1673ffffffffffffffffffffffffffffffffffffffff16815260200190815260200160002060008282546110f6919061332e565b92505081905550816002600083815260200190815260200160002060006101000a81548173ffffffffffffffffffffffffffffffffffffffff021916908373ffffffffffffffffffffffffffffffffffffffff160217905550808273ffffffffffffffffffffffffffffffffffffffff168473ffffffffffffffffffffffffffffffffffffffff167fddf252ad1be2c89b69c2b068fc378daa952ba7f163c4a11628f55a4df523b3ef60405160405180910390a46111b58383836117fa565b505050565b6111c3816117ff565b6111cc816118fd565b50565b6111d7610dfe565b73ffffffffffffffffffffffffffffffffffffffff166111f5610a22565b73ffffffffffffffffffffffffffffffffffffffff161461124b576040517f08c379a0000000000000000000000000000000000000000000000000000000008152600401611242906133d0565b60405180910390fd5b565b6000600b60009054906101000a900473ffffffffffffffffffffffffffffffffffffffff16905081600b60006101000a81548173ffffffffffffffffffffffffffffffffffffffff021916908373ffffffffffffffffffffffffffffffffffffffff1602179055508173ffffffffffffffffffffffffffffffffffffffff168173ffffffffffffffffffffffffffffffffffffffff167f8be0079c531659141344cd1fd0a4f28419497f9722a3daafe3b4186f6b6457e060405160405180910390a35050565b8173ffffffffffffffffffffffffffffffffffffffff168373ffffffffffffffffffffffffffffffffffffffff1603611381576040517f08c379a00000000000000000000000000000000000000000000000000000000081526004016113789061343c565b60405180910390fd5b80600560008573ffffffffffffffffffffffffffffffffffffffff1673ffffffffffffffffffffffffffffffffffffffff16815260200190815260200160002060008473ffffffffffffffffffffffffffffffffffffffff1673ffffffffffffffffffffffffffffffffffffffff16815260200190815260200160002060006101000a81548160ff0219169083151502179055508173ffffffffffffffffffffffffffffffffffffffff168373ffffffffffffffffffffffffffffffffffffffff167f17307eab39ab6107e8899845ad3d59bd9653f200f220920489ca2b5937696c318360405161147291906125c2565b60405180910390a3505050565b61148a848484610f54565b61149684848484611950565b6114d5576040517f08c379a00000000000000000000000000000000000000000000000000000000081526004016114cc906134ce565b60405180910390fd5b50505050565b60606114e682610db3565b6000600a6000848152602001908152602001600020805461150690612cdd565b80601f016020809104026020016040519081016040528092919081815260200182805461153290612cdd565b801561157f5780601f106115545761010080835404028352916020019161157f565b820191906000526020600020905b81548152906001019060200180831161156257829003601f168201915b505050505090506000611590611ad7565b905060008151036115a55781925050506115e8565b6000825111156115da5780826040516020016115c292919061352a565b604051602081830303815290604052925050506115e8565b6115e384611aee565b925050505b919050565b600081600001549050919050565b6001816000016000828254019250508190555050565b61162b828260405180602001604052806000815250611b56565b5050565b6116388261177e565b611677576040517f08c379a000000000000000000000000000000000000000000000000000000000815260040161166e906135c0565b60405180910390fd5b80600a60008481526020019081526020016000209081611697919061378c565b505050565b60007f80ac58cd000000000000000000000000000000000000000000000000000000007bffffffffffffffffffffffffffffffffffffffffffffffffffffffff1916827bffffffffffffffffffffffffffffffffffffffffffffffffffffffff1916148061176757507f5b5e139f000000000000000000000000000000000000000000000000000000007bffffffffffffffffffffffffffffffffffffffffffffffffffffffff1916827bffffffffffffffffffffffffffffffffffffffffffffffffffffffff1916145b80611777575061177682611bb1565b5b9050919050565b60008073ffffffffffffffffffffffffffffffffffffffff166002600084815260200190815260200160002060009054906101000a900473ffffffffffffffffffffffffffffffffffffffff1673ffffffffffffffffffffffffffffffffffffffff1614159050919050565b6117f5838383611c1b565b505050565b505050565b6000805b600d805490508110156118505782600d828154811061182557611824612fe8565b5b90600052602060002001540361183d57809150611850565b80806118489061385e565b915050611803565b5060008190505b6001600d8054905061186991906132fa565b8110156118d057600d60018261187f919061332e565b815481106118905761188f612fe8565b5b9060005260206000200154600d82815481106118af576118ae612fe8565b5b906000526020600020018190555080806118c89061385e565b915050611857565b50600d8054806118e3576118e26138a6565b5b600190038181906000526020600020016000905590555050565b61190681611d2d565b6000600a6000838152602001908152602001600020805461192690612cdd565b90501461194d57600a6000828152602001908152602001600020600061194c91906124b1565b5b50565b60006119718473ffffffffffffffffffffffffffffffffffffffff16611e4a565b15611aca578373ffffffffffffffffffffffffffffffffffffffff1663150b7a0261199a610dfe565b8786866040518563ffffffff1660e01b81526004016119bc949392919061392a565b6020604051808303816000875af19250505080156119f857506040513d601f19601f820116820180604052508101906119f5919061398b565b60015b611a7a573d8060008114611a28576040519150601f19603f3d011682016040523d82523d6000602084013e611a2d565b606091505b506000815103611a72576040517f08c379a0000000000000000000000000000000000000000000000000000000008152600401611a69906134ce565b60405180910390fd5b805181602001fd5b63150b7a0260e01b7bffffffffffffffffffffffffffffffffffffffffffffffffffffffff1916817bffffffffffffffffffffffffffffffffffffffffffffffffffffffff191614915050611acf565b600190505b949350505050565b606060405180602001604052806000815250905090565b6060611af982610db3565b6000611b03611ad7565b90506000815111611b235760405180602001604052806000815250611b4e565b80611b2d84611e6d565b604051602001611b3e92919061352a565b6040516020818303038152906040525b915050919050565b611b608383611fcd565b611b6d6000848484611950565b611bac576040517f08c379a0000000000000000000000000000000000000000000000000000000008152600401611ba3906134ce565b60405180910390fd5b505050565b60007f01ffc9a7000000000000000000000000000000000000000000000000000000007bffffffffffffffffffffffffffffffffffffffffffffffffffffffff1916827bffffffffffffffffffffffffffffffffffffffffffffffffffffffff1916149050919050565b611c268383836121a6565b600073ffffffffffffffffffffffffffffffffffffffff168373ffffffffffffffffffffffffffffffffffffffff1603611c6857611c63816121ab565b611ca7565b8173ffffffffffffffffffffffffffffffffffffffff168373ffffffffffffffffffffffffffffffffffffffff1614611ca657611ca583826121f4565b5b5b600073ffffffffffffffffffffffffffffffffffffffff168273ffffffffffffffffffffffffffffffffffffffff1603611ce957611ce481612361565b611d28565b8273ffffffffffffffffffffffffffffffffffffffff168273ffffffffffffffffffffffffffffffffffffffff1614611d2757611d268282612432565b5b5b505050565b6000611d38826108a6565b9050611d46816000846117ea565b611d51600083610e06565b6001600360008373ffffffffffffffffffffffffffffffffffffffff1673ffffffffffffffffffffffffffffffffffffffff1681526020019081526020016000206000828254611da191906132fa565b925050819055506002600083815260200190815260200160002060006101000a81549073ffffffffffffffffffffffffffffffffffffffff021916905581600073ffffffffffffffffffffffffffffffffffffffff168273ffffffffffffffffffffffffffffffffffffffff167fddf252ad1be2c89b69c2b068fc378daa952ba7f163c4a11628f55a4df523b3ef60405160405180910390a4611e46816000846117fa565b5050565b6000808273ffffffffffffffffffffffffffffffffffffffff163b119050919050565b606060008203611eb4576040518060400160405280600181526020017f30000000000000000000000000000000000000000000000000000000000000008152509050611fc8565b600082905060005b60008214611ee6578080611ecf9061385e565b915050600a82611edf91906139e7565b9150611ebc565b60008167ffffffffffffffff811115611f0257611f016128e3565b5b6040519080825280601f01601f191660200182016040528015611f345781602001600182028036833780820191505090505b5090505b60008514611fc157600182611f4d91906132fa565b9150600a85611f5c9190613a18565b6030611f68919061332e565b60f81b818381518110611f7e57611f7d612fe8565b5b60200101907effffffffffffffffffffffffffffffffffffffffffffffffffffffffffffff1916908160001a905350600a85611fba91906139e7565b9450611f38565b8093505050505b919050565b600073ffffffffffffffffffffffffffffffffffffffff168273ffffffffffffffffffffffffffffffffffffffff160361203c576040517f08c379a000000000000000000000000000000000000000000000000000000000815260040161203390613a95565b60405180910390fd5b6120458161177e565b15612085576040517f08c379a000000000000000000000000000000000000000000000000000000000815260040161207c90613b01565b60405180910390fd5b612091600083836117ea565b6001600360008473ffffffffffffffffffffffffffffffffffffffff1673ffffffffffffffffffffffffffffffffffffffff16815260200190815260200160002060008282546120e1919061332e565b92505081905550816002600083815260200190815260200160002060006101000a81548173ffffffffffffffffffffffffffffffffffffffff021916908373ffffffffffffffffffffffffffffffffffffffff160217905550808273ffffffffffffffffffffffffffffffffffffffff16600073ffffffffffffffffffffffffffffffffffffffff167fddf252ad1be2c89b69c2b068fc378daa952ba7f163c4a11628f55a4df523b3ef60405160405180910390a46121a2600083836117fa565b5050565b505050565b6008805490506009600083815260200190815260200160002081905550600881908060018154018082558091505060019003906000526020600020016000909190919091505550565b6000600161220184610957565b61220b91906132fa565b90506000600760008481526020019081526020016000205490508181146122f0576000600660008673ffffffffffffffffffffffffffffffffffffffff1673ffffffffffffffffffffffffffffffffffffffff168152602001908152602001600020600084815260200190815260200160002054905080600660008773ffffffffffffffffffffffffffffffffffffffff1673ffffffffffffffffffffffffffffffffffffffff168152602001908152602001600020600084815260200190815260200160002081905550816007600083815260200190815260200160002081905550505b6007600084815260200190815260200160002060009055600660008573ffffffffffffffffffffffffffffffffffffffff1673ffffffffffffffffffffffffffffffffffffffff16815260200190815260200160002060008381526020019081526020016000206000905550505050565b6000600160088054905061237591906132fa565b90506000600960008481526020019081526020016000205490506000600883815481106123a5576123a4612fe8565b5b9060005260206000200154905080600883815481106123c7576123c6612fe8565b5b906000526020600020018190555081600960008381526020019081526020016000208190555060096000858152602001908152602001600020600090556008805480612416576124156138a6565b5b6001900381819060005260206000200160009055905550505050565b600061243d83610957565b905081600660008573ffffffffffffffffffffffffffffffffffffffff1673ffffffffffffffffffffffffffffffffffffffff168152602001908152602001600020600083815260200190815260200160002081905550806007600084815260200190815260200160002081905550505050565b5080546124bd90612cdd565b6000825580601f106124cf57506124ee565b601f0160209004906000526020600020908101906124ed91906124f1565b5b50565b5b8082111561250a5760008160009055506001016124f2565b5090565b6000604051905090565b600080fd5b600080fd5b60007fffffffff0000000000000000000000000000000000000000000000000000000082169050919050565b61255781612522565b811461256257600080fd5b50565b6000813590506125748161254e565b92915050565b6000602082840312156125905761258f612518565b5b600061259e84828501612565565b91505092915050565b60008115159050919050565b6125bc816125a7565b82525050565b60006020820190506125d760008301846125b3565b92915050565b600081519050919050565b600082825260208201905092915050565b60005b838110156126175780820151818401526020810190506125fc565b83811115612626576000848401525b50505050565b6000601f19601f8301169050919050565b6000612648826125dd565b61265281856125e8565b93506126628185602086016125f9565b61266b8161262c565b840191505092915050565b60006020820190508181036000830152612690818461263d565b905092915050565b6000819050919050565b6126ab81612698565b81146126b657600080fd5b50565b6000813590506126c8816126a2565b92915050565b6000602082840312156126e4576126e3612518565b5b60006126f2848285016126b9565b91505092915050565b600073ffffffffffffffffffffffffffffffffffffffff82169050919050565b6000612726826126fb565b9050919050565b6127368161271b565b82525050565b6000602082019050612751600083018461272d565b92915050565b6127608161271b565b811461276b57600080fd5b50565b60008135905061277d81612757565b92915050565b6000806040838503121561279a57612799612518565b5b60006127a88582860161276e565b92505060206127b9858286016126b9565b9150509250929050565b6127cc81612698565b82525050565b60006020820190506127e760008301846127c3565b92915050565b60008060006060848603121561280657612805612518565b5b60006128148682870161276e565b93505060206128258682870161276e565b9250506040612836868287016126b9565b9150509250925092565b60006020828403121561285657612855612518565b5b60006128648482850161276e565b91505092915050565b612876816125a7565b811461288157600080fd5b50565b6000813590506128938161286d565b92915050565b600080604083850312156128b0576128af612518565b5b60006128be8582860161276e565b92505060206128cf85828601612884565b9150509250929050565b600080fd5b600080fd5b7f4e487b7100000000000000000000000000000000000000000000000000000000600052604160045260246000fd5b61291b8261262c565b810181811067ffffffffffffffff8211171561293a576129396128e3565b5b80604052505050565b600061294d61250e565b90506129598282612912565b919050565b600067ffffffffffffffff821115612979576129786128e3565b5b6129828261262c565b9050602081019050919050565b82818337600083830152505050565b60006129b16129ac8461295e565b612943565b9050828152602081018484840111156129cd576129cc6128de565b5b6129d884828561298f565b509392505050565b600082601f8301126129f5576129f46128d9565b5b8135612a0584826020860161299e565b91505092915050565b60008060008060808587031215612a2857612a27612518565b5b6000612a368782880161276e565b9450506020612a478782880161276e565b9350506040612a58878288016126b9565b925050606085013567ffffffffffffffff811115612a7957612a7861251d565b5b612a85878288016129e0565b91505092959194509250565b600081519050919050565b600082825260208201905092915050565b6000819050602082019050919050565b612ac681612698565b82525050565b6000612ad88383612abd565b60208301905092915050565b6000602082019050919050565b6000612afc82612a91565b612b068185612a9c565b9350612b1183612aad565b8060005b83811015612b42578151612b298882612acc565b9750612b3483612ae4565b925050600181019050612b15565b5085935050505092915050565b60006020820190508181036000830152612b698184612af1565b905092915050565b600067ffffffffffffffff821115612b8c57612b8b6128e3565b5b612b958261262c565b9050602081019050919050565b6000612bb5612bb084612b71565b612943565b905082815260208101848484011115612bd157612bd06128de565b5b612bdc84828561298f565b509392505050565b600082601f830112612bf957612bf86128d9565b5b8135612c09848260208601612ba2565b91505092915050565b60008060408385031215612c2957612c28612518565b5b6000612c378582860161276e565b925050602083013567ffffffffffffffff811115612c5857612c5761251d565b5b612c6485828601612be4565b9150509250929050565b60008060408385031215612c8557612c84612518565b5b6000612c938582860161276e565b9250506020612ca48582860161276e565b9150509250929050565b7f4e487b7100000000000000000000000000000000000000000000000000000000600052602260045260246000fd5b60006002820490506001821680612cf557607f821691505b602082108103612d0857612d07612cae565b5b50919050565b7f4552433732313a20617070726f76616c20746f2063757272656e74206f776e6560008201527f7200000000000000000000000000000000000000000000000000000000000000602082015250565b6000612d6a6021836125e8565b9150612d7582612d0e565b604082019050919050565b60006020820190508181036000830152612d9981612d5d565b9050919050565b7f4552433732313a20617070726f76652063616c6c6572206973206e6f7420746f60008201527f6b656e206f776e6572206e6f7220617070726f76656420666f7220616c6c0000602082015250565b6000612dfc603e836125e8565b9150612e0782612da0565b604082019050919050565b60006020820190508181036000830152612e2b81612def565b9050919050565b7f4552433732313a2063616c6c6572206973206e6f7420746f6b656e206f776e6560008201527f72206e6f7220617070726f766564000000000000000000000000000000000000602082015250565b6000612e8e602e836125e8565b9150612e9982612e32565b604082019050919050565b60006020820190508181036000830152612ebd81612e81565b9050919050565b7f455243373231456e756d657261626c653a206f776e657220696e646578206f7560008201527f74206f6620626f756e6473000000000000000000000000000000000000000000602082015250565b6000612f20602b836125e8565b9150612f2b82612ec4565b604082019050919050565b60006020820190508181036000830152612f4f81612f13565b9050919050565b7f455243373231456e756d657261626c653a20676c6f62616c20696e646578206f60008201527f7574206f6620626f756e64730000000000000000000000000000000000000000602082015250565b6000612fb2602c836125e8565b9150612fbd82612f56565b604082019050919050565b60006020820190508181036000830152612fe181612fa5565b9050919050565b7f4e487b7100000000000000000000000000000000000000000000000000000000600052603260045260246000fd5b7f4552433732313a20696e76616c696420746f6b656e2049440000000000000000600082015250565b600061304d6018836125e8565b915061305882613017565b602082019050919050565b6000602082019050818103600083015261307c81613040565b9050919050565b7f4552433732313a2061646472657373207a65726f206973206e6f74206120766160008201527f6c6964206f776e65720000000000000000000000000000000000000000000000602082015250565b60006130df6029836125e8565b91506130ea82613083565b604082019050919050565b6000602082019050818103600083015261310e816130d2565b9050919050565b7f4f776e61626c653a206e6577206f776e657220697320746865207a65726f206160008201527f6464726573730000000000000000000000000000000000000000000000000000602082015250565b60006131716026836125e8565b915061317c82613115565b604082019050919050565b600060208201905081810360008301526131a081613164565b9050919050565b7f4552433732313a207472616e736665722066726f6d20696e636f72726563742060008201527f6f776e6572000000000000000000000000000000000000000000000000000000602082015250565b60006132036025836125e8565b915061320e826131a7565b604082019050919050565b60006020820190508181036000830152613232816131f6565b9050919050565b7f4552433732313a207472616e7366657220746f20746865207a65726f2061646460008201527f7265737300000000000000000000000000000000000000000000000000000000602082015250565b60006132956024836125e8565b91506132a082613239565b604082019050919050565b600060208201905081810360008301526132c481613288565b9050919050565b7f4e487b7100000000000000000000000000000000000000000000000000000000600052601160045260246000fd5b600061330582612698565b915061331083612698565b925082821015613323576133226132cb565b5b828203905092915050565b600061333982612698565b915061334483612698565b9250827fffffffffffffffffffffffffffffffffffffffffffffffffffffffffffffffff03821115613379576133786132cb565b5b828201905092915050565b7f4f776e61626c653a2063616c6c6572206973206e6f7420746865206f776e6572600082015250565b60006133ba6020836125e8565b91506133c582613384565b602082019050919050565b600060208201905081810360008301526133e9816133ad565b9050919050565b7f4552433732313a20617070726f766520746f2063616c6c657200000000000000600082015250565b60006134266019836125e8565b9150613431826133f0565b602082019050919050565b6000602082019050818103600083015261345581613419565b9050919050565b7f4552433732313a207472616e7366657220746f206e6f6e20455243373231526560008201527f63656976657220696d706c656d656e7465720000000000000000000000000000602082015250565b60006134b86032836125e8565b91506134c38261345c565b604082019050919050565b600060208201905081810360008301526134e7816134ab565b9050919050565b600081905092915050565b6000613504826125dd565b61350e81856134ee565b935061351e8185602086016125f9565b80840191505092915050565b600061353682856134f9565b915061354282846134f9565b91508190509392505050565b7f45524337323155524953746f726167653a2055524920736574206f66206e6f6e60008201527f6578697374656e7420746f6b656e000000000000000000000000000000000000602082015250565b60006135aa602e836125e8565b91506135b58261354e565b604082019050919050565b600060208201905081810360008301526135d98161359d565b9050919050565b60008190508160005260206000209050919050565b60006020601f8301049050919050565b600082821b905092915050565b6000600883026136427fffffffffffffffffffffffffffffffffffffffffffffffffffffffffffffffff82613605565b61364c8683613605565b95508019841693508086168417925050509392505050565b6000819050919050565b600061368961368461367f84612698565b613664565b612698565b9050919050565b6000819050919050565b6136a38361366e565b6136b76136af82613690565b848454613612565b825550505050565b600090565b6136cc6136bf565b6136d781848461369a565b505050565b5b818110156136fb576136f06000826136c4565b6001810190506136dd565b5050565b601f82111561374057613711816135e0565b61371a846135f5565b81016020851015613729578190505b61373d613735856135f5565b8301826136dc565b50505b505050565b600082821c905092915050565b600061376360001984600802613745565b1980831691505092915050565b600061377c8383613752565b9150826002028217905092915050565b613795826125dd565b67ffffffffffffffff8111156137ae576137ad6128e3565b5b6137b88254612cdd565b6137c38282856136ff565b600060209050601f8311600181146137f657600084156137e4578287015190505b6137ee8582613770565b865550613856565b601f198416613804866135e0565b60005b8281101561382c57848901518255600182019150602085019450602081019050613807565b868310156138495784890151613845601f891682613752565b8355505b6001600288020188555050505b505050505050565b600061386982612698565b91507fffffffffffffffffffffffffffffffffffffffffffffffffffffffffffffffff820361389b5761389a6132cb565b5b600182019050919050565b7f4e487b7100000000000000000000000000000000000000000000000000000000600052603160045260246000fd5b600081519050919050565b600082825260208201905092915050565b60006138fc826138d5565b61390681856138e0565b93506139168185602086016125f9565b61391f8161262c565b840191505092915050565b600060808201905061393f600083018761272d565b61394c602083018661272d565b61395960408301856127c3565b818103606083015261396b81846138f1565b905095945050505050565b6000815190506139858161254e565b92915050565b6000602082840312156139a1576139a0612518565b5b60006139af84828501613976565b91505092915050565b7f4e487b7100000000000000000000000000000000000000000000000000000000600052601260045260246000fd5b60006139f282612698565b91506139fd83612698565b925082613a0d57613a0c6139b8565b5b828204905092915050565b6000613a2382612698565b9150613a2e83612698565b925082613a3e57613a3d6139b8565b5b828206905092915050565b7f4552433732313a206d696e7420746f20746865207a65726f2061646472657373600082015250565b6000613a7f6020836125e8565b9150613a8a82613a49565b602082019050919050565b60006020820190508181036000830152613aae81613a72565b9050919050565b7f4552433732313a20746f6b656e20616c7265616479206d696e74656400000000600082015250565b6000613aeb601c836125e8565b9150613af682613ab5565b602082019050919050565b60006020820190508181036000830152613b1a81613ade565b905091905056fea2646970667358221220350c0f240d598311b81e622f8aafc34586c87862525d8d468109f1a011a1701464736f6c634300080f0033",
  "immutableReferences": {},
  "source": "// SPDX-License-Identifier: MIT\r\npragma solidity ^0.8.15;\r\n\r\nimport \"@openzeppelin/contracts/token/ERC721/ERC721.sol\";\r\nimport \"@openzeppelin/contracts/token/ERC721/extensions/ERC721Enumerable.sol\";\r\nimport \"@openzeppelin/contracts/token/ERC721/extensions/ERC721URIStorage.sol\";\r\nimport \"@openzeppelin/contracts/token/ERC721/extensions/ERC721Burnable.sol\";\r\nimport \"@openzeppelin/contracts/access/Ownable.sol\";\r\nimport \"@openzeppelin/contracts/utils/Counters.sol\";\r\n\r\n\r\ncontract Trading is ERC721, ERC721Enumerable, ERC721URIStorage, ERC721Burnable, Ownable {\r\n    using Counters for Counters.Counter;\r\n\r\n    Counters.Counter private _tokenIdCounter;\r\n    uint[] public tokensList;  //this tokens list contains all the list of tokens available in the contract\r\n    constructor() ERC721(\"Trading\", \"Trading\") {\r\n    }\r\n\r\n    function safeMint(address to, string memory uri) public onlyOwner {\r\n        uint256 tokenId = _tokenIdCounter.current();\r\n        _tokenIdCounter.increment();\r\n        tokensList.push(tokenId);\r\n        _safeMint(to, tokenId);\r\n        _setTokenURI(tokenId, uri);\r\n    }\r\n    function getTokensListCustom()public view returns(uint[] memory){\r\n        return tokensList;\r\n    }\r\n\r\n    // The following functions are overrides required by Solidity.\r\n\r\n    function _beforeTokenTransfer(address from, address to, uint256 tokenId)\r\n        internal\r\n        override(ERC721, ERC721Enumerable)\r\n    {\r\n        super._beforeTokenTransfer(from, to, tokenId);\r\n    }\r\n\r\n    function _burn(uint256 tokenId) internal override(ERC721, ERC721URIStorage) {\r\n        removeElementFromList(tokenId);\r\n        super._burn(tokenId);\r\n    }\r\n\r\n    function tokenURI(uint256 tokenId)\r\n        public\r\n        view\r\n        override(ERC721, ERC721URIStorage)\r\n        returns (string memory)\r\n    {\r\n        return super.tokenURI(tokenId);\r\n    }\r\n\r\n    function supportsInterface(bytes4 interfaceId)\r\n        public\r\n        view\r\n        override(ERC721, ERC721Enumerable)\r\n        returns (bool)\r\n    {\r\n        return super.supportsInterface(interfaceId);\r\n    }\r\n\r\n\r\n    function removeElementFromList(uint value)internal {\r\n        uint index = 0;\r\n        for (uint i = 0; i<tokensList.length; i++){\r\n            if (tokensList[i] == value){\r\n                index = i;\r\n                break;\r\n            }\r\n        }\r\n\r\n        for (uint i = index; i<tokensList.length-1; i++) {\r\n            tokensList[i] = tokensList[i+1];\r\n        }\r\n        tokensList.pop();\r\n    }\r\n}",
  "sourcePath": "D:\\blockckain\\trading\\trading\\src\\contracts\\Trading.sol",
  "compiler": {
    "name": "solc",
    "version": "0.8.15+commit.e14f2714.Emscripten.clang"
  },
  "schemaVersion": "3.4.8",
  "updatedAt": "2022-07-31T09:16:57.412Z",
  "networkType": "ethereum",
  "devdoc": {
    "kind": "dev",
    "methods": {
      "approve(address,uint256)": {
        "details": "See {IERC721-approve}."
      },
      "balanceOf(address)": {
        "details": "See {IERC721-balanceOf}."
      },
      "burn(uint256)": {
        "details": "Burns `tokenId`. See {ERC721-_burn}. Requirements: - The caller must own `tokenId` or be an approved operator."
      },
      "getApproved(uint256)": {
        "details": "See {IERC721-getApproved}."
      },
      "isApprovedForAll(address,address)": {
        "details": "See {IERC721-isApprovedForAll}."
      },
      "name()": {
        "details": "See {IERC721Metadata-name}."
      },
      "owner()": {
        "details": "Returns the address of the current owner."
      },
      "ownerOf(uint256)": {
        "details": "See {IERC721-ownerOf}."
      },
      "renounceOwnership()": {
        "details": "Leaves the contract without owner. It will not be possible to call `onlyOwner` functions anymore. Can only be called by the current owner. NOTE: Renouncing ownership will leave the contract without an owner, thereby removing any functionality that is only available to the owner."
      },
      "safeTransferFrom(address,address,uint256)": {
        "details": "See {IERC721-safeTransferFrom}."
      },
      "safeTransferFrom(address,address,uint256,bytes)": {
        "details": "See {IERC721-safeTransferFrom}."
      },
      "setApprovalForAll(address,bool)": {
        "details": "See {IERC721-setApprovalForAll}."
      },
      "symbol()": {
        "details": "See {IERC721Metadata-symbol}."
      },
      "tokenByIndex(uint256)": {
        "details": "See {IERC721Enumerable-tokenByIndex}."
      },
      "tokenOfOwnerByIndex(address,uint256)": {
        "details": "See {IERC721Enumerable-tokenOfOwnerByIndex}."
      },
      "totalSupply()": {
        "details": "See {IERC721Enumerable-totalSupply}."
      },
      "transferFrom(address,address,uint256)": {
        "details": "See {IERC721-transferFrom}."
      },
      "transferOwnership(address)": {
        "details": "Transfers ownership of the contract to a new account (`newOwner`). Can only be called by the current owner."
      }
    },
    "version": 1
  },
  "userdoc": {
    "kind": "user",
    "methods": {},
    "version": 1
  }
}